{
  "contractName": "BinanceCoin",
  "abi": [
    {
      "inputs": [
        {
          "internalType": "uint256",
          "name": "_initialSupply",
          "type": "uint256"
        }
      ],
      "stateMutability": "nonpayable",
      "type": "constructor"
    },
    {
      "anonymous": false,
      "inputs": [
        {
          "indexed": true,
          "internalType": "address",
          "name": "sender",
          "type": "address"
        },
        {
          "indexed": false,
          "internalType": "uint256",
          "name": "amount",
          "type": "uint256"
        }
      ],
      "name": "Deposit",
      "type": "event"
    },
    {
      "anonymous": false,
      "inputs": [
        {
          "indexed": true,
          "internalType": "address",
          "name": "recipient",
          "type": "address"
        },
        {
          "indexed": false,
          "internalType": "uint256",
          "name": "amount",
          "type": "uint256"
        }
      ],
      "name": "Withdrawal",
      "type": "event"
    },
    {
      "inputs": [],
      "name": "decimals",
      "outputs": [
        {
          "internalType": "uint8",
          "name": "",
          "type": "uint8"
        }
      ],
      "stateMutability": "view",
      "type": "function"
    },
    {
      "inputs": [],
      "name": "name",
      "outputs": [
        {
          "internalType": "string",
          "name": "",
          "type": "string"
        }
      ],
      "stateMutability": "view",
      "type": "function"
    },
    {
      "inputs": [],
      "name": "symbol",
      "outputs": [
        {
          "internalType": "string",
          "name": "",
          "type": "string"
        }
      ],
      "stateMutability": "view",
      "type": "function"
    },
    {
      "inputs": [],
      "name": "totalSupply",
      "outputs": [
        {
          "internalType": "uint256",
          "name": "",
          "type": "uint256"
        }
      ],
      "stateMutability": "view",
      "type": "function"
    },
    {
      "inputs": [
        {
          "internalType": "address",
          "name": "account",
          "type": "address"
        }
      ],
      "name": "balanceOf",
      "outputs": [
        {
          "internalType": "uint256",
          "name": "",
          "type": "uint256"
        }
      ],
      "stateMutability": "view",
      "type": "function"
    },
    {
      "inputs": [
        {
          "internalType": "uint256",
          "name": "amount",
          "type": "uint256"
        }
      ],
      "name": "deposit",
      "outputs": [],
      "stateMutability": "payable",
      "type": "function"
    },
    {
      "inputs": [
        {
          "internalType": "uint256",
          "name": "amount",
          "type": "uint256"
        }
      ],
      "name": "withdraw",
      "outputs": [],
      "stateMutability": "nonpayable",
      "type": "function"
    }
  ],
  "bytecode": "0x60806040526040518060400160405280600c81526020017f42696e616e636520436f696e00000000000000000000000000000000000000008152505f90816200004991906200041e565b506040518060400160405280600381526020017f424e420000000000000000000000000000000000000000000000000000000000815250600190816200009091906200041e565b50601260025f6101000a81548160ff021916908360ff160217905550348015620000b8575f80fd5b5060405162000f7738038062000f778339818101604052810190620000de919062000535565b620000f03382620000f760201b60201c565b50620005f8565b8060045f8473ffffffffffffffffffffffffffffffffffffffff1673ffffffffffffffffffffffffffffffffffffffff1681526020019081526020015f205f82825462000145919062000592565b925050819055508060035f8282546200015f919062000592565b925050819055508173ffffffffffffffffffffffffffffffffffffffff167fe1fffcc4923d04b559f4d29a8bfc6cda04eb5b0d3c460751c2402c5c5cc9109c82604051620001ae9190620005dd565b60405180910390a25050565b5f81519050919050565b7f4e487b71000000000000000000000000000000000000000000000000000000005f52604160045260245ffd5b7f4e487b71000000000000000000000000000000000000000000000000000000005f52602260045260245ffd5b5f60028204905060018216806200023657607f821691505b6020821081036200024c576200024b620001f1565b5b50919050565b5f819050815f5260205f209050919050565b5f6020601f8301049050919050565b5f82821b905092915050565b5f60088302620002b07fffffffffffffffffffffffffffffffffffffffffffffffffffffffffffffffff8262000273565b620002bc868362000273565b95508019841693508086168417925050509392505050565b5f819050919050565b5f819050919050565b5f6200030662000300620002fa84620002d4565b620002dd565b620002d4565b9050919050565b5f819050919050565b6200032183620002e6565b6200033962000330826200030d565b8484546200027f565b825550505050565b5f90565b6200034f62000341565b6200035c81848462000316565b505050565b5b818110156200038357620003775f8262000345565b60018101905062000362565b5050565b601f821115620003d2576200039c8162000252565b620003a78462000264565b81016020851015620003b7578190505b620003cf620003c68562000264565b83018262000361565b50505b505050565b5f82821c905092915050565b5f620003f45f1984600802620003d7565b1980831691505092915050565b5f6200040e8383620003e3565b9150826002028217905092915050565b6200042982620001ba565b67ffffffffffffffff811115620004455762000444620001c4565b5b6200045182546200021e565b6200045e82828562000387565b5f60209050601f83116001811462000494575f84156200047f578287015190505b6200048b858262000401565b865550620004fa565b601f198416620004a48662000252565b5f5b82811015620004cd57848901518255600182019150602085019450602081019050620004a6565b86831015620004ed5784890151620004e9601f891682620003e3565b8355505b6001600288020188555050505b505050505050565b5f80fd5b6200051181620002d4565b81146200051c575f80fd5b50565b5f815190506200052f8162000506565b92915050565b5f602082840312156200054d576200054c62000502565b5b5f6200055c848285016200051f565b91505092915050565b7f4e487b71000000000000000000000000000000000000000000000000000000005f52601160045260245ffd5b5f6200059e82620002d4565b9150620005ab83620002d4565b9250828201905080821115620005c657620005c562000565565b5b92915050565b620005d781620002d4565b82525050565b5f602082019050620005f25f830184620005cc565b92915050565b61097180620006065f395ff3fe60806040526004361061006f575f3560e01c8063313ce5671161004d578063313ce567146100ef57806370a082311461011957806395d89b4114610155578063b6b55f251461017f5761006f565b806306fdde031461007357806318160ddd1461009d5780632e1a7d4d146100c7575b5f80fd5b34801561007e575f80fd5b5061008761019b565b6040516100949190610618565b60405180910390f35b3480156100a8575f80fd5b506100b1610226565b6040516100be9190610650565b60405180910390f35b3480156100d2575f80fd5b506100ed60048036038101906100e89190610697565b61022c565b005b3480156100fa575f80fd5b506101036103ac565b60405161011091906106dd565b60405180910390f35b348015610124575f80fd5b5061013f600480360381019061013a9190610750565b6103be565b60405161014c9190610650565b60405180910390f35b348015610160575f80fd5b50610169610404565b6040516101769190610618565b60405180910390f35b61019960048036038101906101949190610697565b610490565b005b5f80546101a7906107a8565b80601f01602080910402602001604051908101604052809291908181526020018280546101d3906107a8565b801561021e5780601f106101f55761010080835404028352916020019161021e565b820191905f5260205f20905b81548152906001019060200180831161020157829003601f168201915b505050505081565b60035481565b8060045f3373ffffffffffffffffffffffffffffffffffffffff1673ffffffffffffffffffffffffffffffffffffffff1681526020019081526020015f205410156102ac576040517f08c379a00000000000000000000000000000000000000000000000000000000081526004016102a390610822565b60405180910390fd5b8060045f3373ffffffffffffffffffffffffffffffffffffffff1673ffffffffffffffffffffffffffffffffffffffff1681526020019081526020015f205f8282546102f8919061086d565b925050819055508060035f828254610310919061086d565b925050819055503373ffffffffffffffffffffffffffffffffffffffff166108fc8290811502906040515f60405180830381858888f1935050505015801561035a573d5f803e3d5ffd5b503373ffffffffffffffffffffffffffffffffffffffff167f7fcf532c15f0a6db0bd6d0e038bea71d30d808c7d98cb3bf7268a95bf5081b65826040516103a19190610650565b60405180910390a250565b60025f9054906101000a900460ff1681565b5f60045f8373ffffffffffffffffffffffffffffffffffffffff1673ffffffffffffffffffffffffffffffffffffffff1681526020019081526020015f20549050919050565b60018054610411906107a8565b80601f016020809104026020016040519081016040528092919081815260200182805461043d906107a8565b80156104885780601f1061045f57610100808354040283529160200191610488565b820191905f5260205f20905b81548152906001019060200180831161046b57829003601f168201915b505050505081565b8034146104d2576040517f08c379a00000000000000000000000000000000000000000000000000000000081526004016104c9906108ea565b60405180910390fd5b8060045f3373ffffffffffffffffffffffffffffffffffffffff1673ffffffffffffffffffffffffffffffffffffffff1681526020019081526020015f205f82825461051e9190610908565b925050819055508060035f8282546105369190610908565b925050819055503373ffffffffffffffffffffffffffffffffffffffff167fe1fffcc4923d04b559f4d29a8bfc6cda04eb5b0d3c460751c2402c5c5cc9109c826040516105839190610650565b60405180910390a250565b5f81519050919050565b5f82825260208201905092915050565b5f5b838110156105c55780820151818401526020810190506105aa565b5f8484015250505050565b5f601f19601f8301169050919050565b5f6105ea8261058e565b6105f48185610598565b93506106048185602086016105a8565b61060d816105d0565b840191505092915050565b5f6020820190508181035f83015261063081846105e0565b905092915050565b5f819050919050565b61064a81610638565b82525050565b5f6020820190506106635f830184610641565b92915050565b5f80fd5b61067681610638565b8114610680575f80fd5b50565b5f813590506106918161066d565b92915050565b5f602082840312156106ac576106ab610669565b5b5f6106b984828501610683565b91505092915050565b5f60ff82169050919050565b6106d7816106c2565b82525050565b5f6020820190506106f05f8301846106ce565b92915050565b5f73ffffffffffffffffffffffffffffffffffffffff82169050919050565b5f61071f826106f6565b9050919050565b61072f81610715565b8114610739575f80fd5b50565b5f8135905061074a81610726565b92915050565b5f6020828403121561076557610764610669565b5b5f6107728482850161073c565b91505092915050565b7f4e487b71000000000000000000000000000000000000000000000000000000005f52602260045260245ffd5b5f60028204905060018216806107bf57607f821691505b6020821081036107d2576107d161077b565b5b50919050565b7f496e73756666696369656e742062616c616e63650000000000000000000000005f82015250565b5f61080c601483610598565b9150610817826107d8565b602082019050919050565b5f6020820190508181035f83015261083981610800565b9050919050565b7f4e487b71000000000000000000000000000000000000000000000000000000005f52601160045260245ffd5b5f61087782610638565b915061088283610638565b925082820390508181111561089a57610899610840565b5b92915050565b7f424e4220616d6f756e74206d757374206d617463682073656e742076616c75655f82015250565b5f6108d4602083610598565b91506108df826108a0565b602082019050919050565b5f6020820190508181035f830152610901816108c8565b9050919050565b5f61091282610638565b915061091d83610638565b925082820190508082111561093557610934610840565b5b9291505056fea2646970667358221220aa0cd3fc51e0b5bb0b439086eb0142a0b96c36beafc245d8c702978310983f6864736f6c63430008150033",
  "immutableReferences": {},
  "source": "// SPDX-License-Identifier: MIT\r\npragma solidity ^0.8.19;\r\n\r\ncontract BinanceCoin {\r\n    string public name = \"Binance Coin\";\r\n    string public symbol = \"BNB\";\r\n    uint8 public decimals = 18;\r\n    uint256 public totalSupply;\r\n\r\n    mapping(address => uint256) private _balances;\r\n\r\n    event Deposit(address indexed sender, uint256 amount);\r\n    event Withdrawal(address indexed recipient, uint256 amount);\r\n\r\n    constructor(uint256 _initialSupply) {\r\n        _mint(msg.sender, _initialSupply);\r\n    }\r\n\r\n    function balanceOf(address account) external view returns (uint256) {\r\n        return _balances[account];\r\n    }\r\n\r\n    function deposit(uint256 amount) external payable {\r\n        require(msg.value == amount, \"BNB amount must match sent value\");\r\n        _balances[msg.sender] += amount; // No overflow/underflow check for simplicity\r\n        totalSupply += amount; // No overflow check for simplicity\r\n        emit Deposit(msg.sender, amount);\r\n    }\r\n\r\n    function withdraw(uint256 amount) external {\r\n        require(_balances[msg.sender] >= amount, \"Insufficient balance\");\r\n        _balances[msg.sender] -= amount; // No underflow check for simplicity\r\n        totalSupply -= amount; // No underflow check for simplicity\r\n        payable(msg.sender).transfer(amount);\r\n        emit Withdrawal(msg.sender, amount);\r\n    }\r\n\r\n    function _mint(address account, uint256 amount) internal {\r\n        _balances[account] += amount; // No overflow check for simplicity\r\n        totalSupply += amount; // No overflow check for simplicity\r\n        emit Deposit(account, amount);\r\n    }\r\n\r\n    // Omitted: _burn function for simplicity\r\n\r\n    // Omitted: _transfer function for simplicity\r\n}\r\n",
  "sourcePath": "C:\\Users\\hp\\OneDrive\\Desktop\\Counter\\contracts\\Binancecoin.sol",
  "compiler": {
    "name": "solc",
    "version": "0.8.21+commit.d9974bed.Emscripten.clang"
  },
  "schemaVersion": "3.4.16",
  "updatedAt": "2024-02-29T01:19:35.124Z",
  "devdoc": {
    "kind": "dev",
    "methods": {},
    "version": 1
  },
  "userdoc": {
    "kind": "user",
    "methods": {},
    "version": 1
  }
}