{
  "contractName": "EthereumWallet",
  "abi": [
    {
      "anonymous": false,
      "inputs": [
        {
          "indexed": true,
          "internalType": "address",
          "name": "sender",
          "type": "address"
        },
        {
          "indexed": true,
          "internalType": "address",
          "name": "recipient",
          "type": "address"
        },
        {
          "indexed": false,
          "internalType": "uint256",
          "name": "amount",
          "type": "uint256"
        }
      ],
      "name": "Deposit",
      "type": "event"
    },
    {
      "anonymous": false,
      "inputs": [
        {
          "indexed": true,
          "internalType": "address",
          "name": "recipient",
          "type": "address"
        },
        {
          "indexed": false,
          "internalType": "uint256",
          "name": "amount",
          "type": "uint256"
        }
      ],
      "name": "Withdrawal",
      "type": "event"
    },
    {
      "inputs": [
        {
          "internalType": "address",
          "name": "",
          "type": "address"
        }
      ],
      "name": "balances",
      "outputs": [
        {
          "internalType": "uint256",
          "name": "",
          "type": "uint256"
        }
      ],
      "stateMutability": "view",
      "type": "function"
    },
    {
      "inputs": [
        {
          "internalType": "uint256",
          "name": "_amount",
          "type": "uint256"
        },
        {
          "internalType": "address",
          "name": "_toAddress",
          "type": "address"
        }
      ],
      "name": "deposit",
      "outputs": [],
      "stateMutability": "payable",
      "type": "function"
    },
    {
      "inputs": [
        {
          "internalType": "uint256",
          "name": "_amount",
          "type": "uint256"
        },
        {
          "internalType": "address",
          "name": "_fromAddress",
          "type": "address"
        }
      ],
      "name": "withdraw",
      "outputs": [],
      "stateMutability": "nonpayable",
      "type": "function"
    },
    {
      "inputs": [
        {
          "internalType": "address",
          "name": "_address",
          "type": "address"
        }
      ],
      "name": "getBalance",
      "outputs": [
        {
          "internalType": "uint256",
          "name": "",
          "type": "uint256"
        }
      ],
      "stateMutability": "view",
      "type": "function"
    }
  ],
  "bytecode": "0x608060405234801561000f575f80fd5b5061084b8061001d5f395ff3fe60806040526004361061003d575f3560e01c8062f714ce1461004157806327e235e3146100695780636e553f65146100a5578063f8b2cb4f146100c1575b5f80fd5b34801561004c575f80fd5b50610067600480360381019061006291906104cf565b6100fd565b005b348015610074575f80fd5b5061008f600480360381019061008a919061050d565b6102a6565b60405161009c9190610547565b60405180910390f35b6100bf60048036038101906100ba91906104cf565b6102ba565b005b3480156100cc575f80fd5b506100e760048036038101906100e2919061050d565b6103f9565b6040516100f49190610547565b60405180910390f35b5f821161013f576040517f08c379a0000000000000000000000000000000000000000000000000000000008152600401610136906105e0565b60405180910390fd5b815f808373ffffffffffffffffffffffffffffffffffffffff1673ffffffffffffffffffffffffffffffffffffffff1681526020019081526020015f205410156101be576040517f08c379a00000000000000000000000000000000000000000000000000000000081526004016101b590610648565b60405180910390fd5b815f808373ffffffffffffffffffffffffffffffffffffffff1673ffffffffffffffffffffffffffffffffffffffff1681526020019081526020015f205f8282546102099190610693565b925050819055508073ffffffffffffffffffffffffffffffffffffffff166108fc8390811502906040515f60405180830381858888f19350505050158015610253573d5f803e3d5ffd5b508073ffffffffffffffffffffffffffffffffffffffff167f7fcf532c15f0a6db0bd6d0e038bea71d30d808c7d98cb3bf7268a95bf5081b658360405161029a9190610547565b60405180910390a25050565b5f602052805f5260405f205f915090505481565b5f82116102fc576040517f08c379a00000000000000000000000000000000000000000000000000000000081526004016102f390610736565b60405180910390fd5b81341461033e576040517f08c379a0000000000000000000000000000000000000000000000000000000008152600401610335906107c4565b60405180910390fd5b815f808373ffffffffffffffffffffffffffffffffffffffff1673ffffffffffffffffffffffffffffffffffffffff1681526020019081526020015f205f82825461038991906107e2565b925050819055508073ffffffffffffffffffffffffffffffffffffffff163373ffffffffffffffffffffffffffffffffffffffff167f5548c837ab068cf56a2c2479df0882a4922fd203edb7517321831d95078c5f62846040516103ed9190610547565b60405180910390a35050565b5f805f8373ffffffffffffffffffffffffffffffffffffffff1673ffffffffffffffffffffffffffffffffffffffff1681526020019081526020015f20549050919050565b5f80fd5b5f819050919050565b61045481610442565b811461045e575f80fd5b50565b5f8135905061046f8161044b565b92915050565b5f73ffffffffffffffffffffffffffffffffffffffff82169050919050565b5f61049e82610475565b9050919050565b6104ae81610494565b81146104b8575f80fd5b50565b5f813590506104c9816104a5565b92915050565b5f80604083850312156104e5576104e461043e565b5b5f6104f285828601610461565b9250506020610503858286016104bb565b9150509250929050565b5f602082840312156105225761052161043e565b5b5f61052f848285016104bb565b91505092915050565b61054181610442565b82525050565b5f60208201905061055a5f830184610538565b92915050565b5f82825260208201905092915050565b7f5769746864726177616c20616d6f756e74206d757374206265206772656174655f8201527f72207468616e207a65726f000000000000000000000000000000000000000000602082015250565b5f6105ca602b83610560565b91506105d582610570565b604082019050919050565b5f6020820190508181035f8301526105f7816105be565b9050919050565b7f496e73756666696369656e742062616c616e63650000000000000000000000005f82015250565b5f610632601483610560565b915061063d826105fe565b602082019050919050565b5f6020820190508181035f83015261065f81610626565b9050919050565b7f4e487b71000000000000000000000000000000000000000000000000000000005f52601160045260245ffd5b5f61069d82610442565b91506106a883610442565b92508282039050818111156106c0576106bf610666565b5b92915050565b7f4465706f73697420616d6f756e74206d757374206265206772656174657220745f8201527f68616e207a65726f000000000000000000000000000000000000000000000000602082015250565b5f610720602883610560565b915061072b826106c6565b604082019050919050565b5f6020820190508181035f83015261074d81610714565b9050919050565b7f53656e7420457468657220616d6f756e74206d757374206d61746368207370655f8201527f63696669656420616d6f756e7400000000000000000000000000000000000000602082015250565b5f6107ae602d83610560565b91506107b982610754565b604082019050919050565b5f6020820190508181035f8301526107db816107a2565b9050919050565b5f6107ec82610442565b91506107f783610442565b925082820190508082111561080f5761080e610666565b5b9291505056fea2646970667358221220cc02ddc9ea7f3e57b728d64e9acbc8062b82a6aadc7ad7ebc690c7f44fd310d064736f6c63430008150033",
  "immutableReferences": {},
  "source": "// SPDX-License-Identifier: GPL-3.0\r\n\r\npragma solidity ^0.8.19;\r\n\r\nimport \"@openzeppelin/contracts/token/ERC20/IERC20.sol\";\r\n\r\n\r\ncontract EthereumWallet {\r\n    mapping(address => uint256) public balances;\r\n\r\n    event Deposit(address indexed sender, address indexed recipient, uint256 amount);\r\n    event Withdrawal(address indexed recipient, uint256 amount);\r\n\r\n    function deposit(uint256 _amount, address _toAddress) external payable {\r\n        require(_amount > 0, \"Deposit amount must be greater than zero\");\r\n        require(msg.value == _amount, \"Sent Ether amount must match specified amount\");\r\n\r\n        balances[_toAddress] += _amount;\r\n        emit Deposit(msg.sender, _toAddress, _amount);\r\n    }\r\n\r\n    function withdraw(uint256 _amount, address _fromAddress) external {\r\n        require(_amount > 0, \"Withdrawal amount must be greater than zero\");\r\n        require(balances[_fromAddress] >= _amount, \"Insufficient balance\");\r\n\r\n        balances[_fromAddress] -= _amount;\r\n        payable(_fromAddress).transfer(_amount);\r\n        emit Withdrawal(_fromAddress, _amount);\r\n    }\r\n\r\n    function getBalance(address _address) external view returns (uint256) {\r\n        return balances[_address];\r\n    }\r\n}\r\n\r\n",
  "sourcePath": "C:\\Users\\hp\\OneDrive\\Desktop\\Counter\\contracts\\ethereum.sol",
  "compiler": {
    "name": "solc",
    "version": "0.8.21+commit.d9974bed.Emscripten.clang"
  },
  "schemaVersion": "3.4.16",
  "updatedAt": "2024-02-29T01:19:35.172Z",
  "devdoc": {
    "kind": "dev",
    "methods": {},
    "version": 1
  },
  "userdoc": {
    "kind": "user",
    "methods": {},
    "version": 1
  }
}