{
  "contractName": "PolygonWallet",
  "abi": [
    {
      "inputs": [
        {
          "internalType": "address",
          "name": "_tokenAddress",
          "type": "address"
        }
      ],
      "stateMutability": "nonpayable",
      "type": "constructor"
    },
    {
      "anonymous": false,
      "inputs": [
        {
          "indexed": true,
          "internalType": "address",
          "name": "sender",
          "type": "address"
        },
        {
          "indexed": false,
          "internalType": "uint256",
          "name": "amount",
          "type": "uint256"
        }
      ],
      "name": "Deposit",
      "type": "event"
    },
    {
      "anonymous": false,
      "inputs": [
        {
          "indexed": true,
          "internalType": "address",
          "name": "recipient",
          "type": "address"
        },
        {
          "indexed": false,
          "internalType": "uint256",
          "name": "amount",
          "type": "uint256"
        }
      ],
      "name": "Withdrawal",
      "type": "event"
    },
    {
      "inputs": [
        {
          "internalType": "address",
          "name": "",
          "type": "address"
        }
      ],
      "name": "balances",
      "outputs": [
        {
          "internalType": "uint256",
          "name": "",
          "type": "uint256"
        }
      ],
      "stateMutability": "view",
      "type": "function"
    },
    {
      "inputs": [],
      "name": "token",
      "outputs": [
        {
          "internalType": "contract IERC20",
          "name": "",
          "type": "address"
        }
      ],
      "stateMutability": "view",
      "type": "function"
    },
    {
      "inputs": [
        {
          "internalType": "uint256",
          "name": "_amount",
          "type": "uint256"
        }
      ],
      "name": "deposit",
      "outputs": [],
      "stateMutability": "nonpayable",
      "type": "function"
    },
    {
      "inputs": [
        {
          "internalType": "address",
          "name": "_recipient",
          "type": "address"
        },
        {
          "internalType": "uint256",
          "name": "_amount",
          "type": "uint256"
        }
      ],
      "name": "withdraw",
      "outputs": [],
      "stateMutability": "nonpayable",
      "type": "function"
    },
    {
      "inputs": [
        {
          "internalType": "address",
          "name": "_address",
          "type": "address"
        }
      ],
      "name": "balanceOf",
      "outputs": [
        {
          "internalType": "uint256",
          "name": "",
          "type": "uint256"
        }
      ],
      "stateMutability": "view",
      "type": "function"
    }
  ],
  "bytecode": "0x608060405234801561000f575f80fd5b50604051610bed380380610bed833981810160405281019061003191906100d5565b8060015f6101000a81548173ffffffffffffffffffffffffffffffffffffffff021916908373ffffffffffffffffffffffffffffffffffffffff16021790555050610100565b5f80fd5b5f73ffffffffffffffffffffffffffffffffffffffff82169050919050565b5f6100a48261007b565b9050919050565b6100b48161009a565b81146100be575f80fd5b50565b5f815190506100cf816100ab565b92915050565b5f602082840312156100ea576100e9610077565b5b5f6100f7848285016100c1565b91505092915050565b610ae08061010d5f395ff3fe608060405234801561000f575f80fd5b5060043610610055575f3560e01c806327e235e31461005957806370a0823114610089578063b6b55f25146100b9578063f3fef3a3146100d5578063fc0c546a146100f1575b5f80fd5b610073600480360381019061006e91906105ed565b61010f565b6040516100809190610630565b60405180910390f35b6100a3600480360381019061009e91906105ed565b610123565b6040516100b09190610630565b60405180910390f35b6100d360048036038101906100ce9190610673565b610168565b005b6100ef60048036038101906100ea919061069e565b61032a565b005b6100f961056a565b6040516101069190610737565b60405180910390f35b5f602052805f5260405f205f915090505481565b5f805f8373ffffffffffffffffffffffffffffffffffffffff1673ffffffffffffffffffffffffffffffffffffffff1681526020019081526020015f20549050919050565b5f81116101aa576040517f08c379a00000000000000000000000000000000000000000000000000000000081526004016101a1906107d0565b60405180910390fd5b60015f9054906101000a900473ffffffffffffffffffffffffffffffffffffffff1673ffffffffffffffffffffffffffffffffffffffff166323b872dd3330846040518463ffffffff1660e01b8152600401610208939291906107fd565b6020604051808303815f875af1158015610224573d5f803e3d5ffd5b505050506040513d601f19601f820116820180604052508101906102489190610867565b610287576040517f08c379a000000000000000000000000000000000000000000000000000000000815260040161027e906108dc565b60405180910390fd5b805f803373ffffffffffffffffffffffffffffffffffffffff1673ffffffffffffffffffffffffffffffffffffffff1681526020019081526020015f205f8282546102d29190610927565b925050819055503373ffffffffffffffffffffffffffffffffffffffff167fe1fffcc4923d04b559f4d29a8bfc6cda04eb5b0d3c460751c2402c5c5cc9109c8260405161031f9190610630565b60405180910390a250565b5f811161036c576040517f08c379a0000000000000000000000000000000000000000000000000000000008152600401610363906109ca565b60405180910390fd5b805f803373ffffffffffffffffffffffffffffffffffffffff1673ffffffffffffffffffffffffffffffffffffffff1681526020019081526020015f205410156103eb576040517f08c379a00000000000000000000000000000000000000000000000000000000081526004016103e290610a32565b60405180910390fd5b60015f9054906101000a900473ffffffffffffffffffffffffffffffffffffffff1673ffffffffffffffffffffffffffffffffffffffff1663a9059cbb83836040518363ffffffff1660e01b8152600401610447929190610a50565b6020604051808303815f875af1158015610463573d5f803e3d5ffd5b505050506040513d601f19601f820116820180604052508101906104879190610867565b6104c6576040517f08c379a00000000000000000000000000000000000000000000000000000000081526004016104bd906108dc565b60405180910390fd5b805f803373ffffffffffffffffffffffffffffffffffffffff1673ffffffffffffffffffffffffffffffffffffffff1681526020019081526020015f205f8282546105119190610a77565b925050819055508173ffffffffffffffffffffffffffffffffffffffff167f7fcf532c15f0a6db0bd6d0e038bea71d30d808c7d98cb3bf7268a95bf5081b658260405161055e9190610630565b60405180910390a25050565b60015f9054906101000a900473ffffffffffffffffffffffffffffffffffffffff1681565b5f80fd5b5f73ffffffffffffffffffffffffffffffffffffffff82169050919050565b5f6105bc82610593565b9050919050565b6105cc816105b2565b81146105d6575f80fd5b50565b5f813590506105e7816105c3565b92915050565b5f602082840312156106025761060161058f565b5b5f61060f848285016105d9565b91505092915050565b5f819050919050565b61062a81610618565b82525050565b5f6020820190506106435f830184610621565b92915050565b61065281610618565b811461065c575f80fd5b50565b5f8135905061066d81610649565b92915050565b5f602082840312156106885761068761058f565b5b5f6106958482850161065f565b91505092915050565b5f80604083850312156106b4576106b361058f565b5b5f6106c1858286016105d9565b92505060206106d28582860161065f565b9150509250929050565b5f819050919050565b5f6106ff6106fa6106f584610593565b6106dc565b610593565b9050919050565b5f610710826106e5565b9050919050565b5f61072182610706565b9050919050565b61073181610717565b82525050565b5f60208201905061074a5f830184610728565b92915050565b5f82825260208201905092915050565b7f4465706f73697420616d6f756e74206d757374206265206772656174657220745f8201527f68616e207a65726f000000000000000000000000000000000000000000000000602082015250565b5f6107ba602883610750565b91506107c582610760565b604082019050919050565b5f6020820190508181035f8301526107e7816107ae565b9050919050565b6107f7816105b2565b82525050565b5f6060820190506108105f8301866107ee565b61081d60208301856107ee565b61082a6040830184610621565b949350505050565b5f8115159050919050565b61084681610832565b8114610850575f80fd5b50565b5f815190506108618161083d565b92915050565b5f6020828403121561087c5761087b61058f565b5b5f61088984828501610853565b91505092915050565b7f4661696c656420746f207472616e7366657220746f6b656e73000000000000005f82015250565b5f6108c6601983610750565b91506108d182610892565b602082019050919050565b5f6020820190508181035f8301526108f3816108ba565b9050919050565b7f4e487b71000000000000000000000000000000000000000000000000000000005f52601160045260245ffd5b5f61093182610618565b915061093c83610618565b9250828201905080821115610954576109536108fa565b5b92915050565b7f5769746864726177616c20616d6f756e74206d757374206265206772656174655f8201527f72207468616e207a65726f000000000000000000000000000000000000000000602082015250565b5f6109b4602b83610750565b91506109bf8261095a565b604082019050919050565b5f6020820190508181035f8301526109e1816109a8565b9050919050565b7f496e73756666696369656e742062616c616e63650000000000000000000000005f82015250565b5f610a1c601483610750565b9150610a27826109e8565b602082019050919050565b5f6020820190508181035f830152610a4981610a10565b9050919050565b5f604082019050610a635f8301856107ee565b610a706020830184610621565b9392505050565b5f610a8182610618565b9150610a8c83610618565b9250828203905081811115610aa457610aa36108fa565b5b9291505056fea2646970667358221220dd5a9b5a28bd4868140dc08b2be3fb5570f27d9cd7f9cacc7055cb8ce39d9c2864736f6c63430008150033",
  "immutableReferences": {},
  "source": "// SPDX-License-Identifier: MIT\r\npragma solidity ^0.8.0;\r\n\r\nimport \"@openzeppelin/contracts/token/ERC20/IERC20.sol\";\r\n\r\ncontract PolygonWallet {\r\n    mapping(address => uint256) public balances;\r\n    IERC20 public token;\r\n\r\n    event Deposit(address indexed sender, uint256 amount);\r\n    event Withdrawal(address indexed recipient, uint256 amount);\r\n\r\n    constructor(address _tokenAddress) {\r\n        token = IERC20(_tokenAddress);\r\n    }\r\n\r\n    function deposit(uint256 _amount) external {\r\n        require(_amount > 0, \"Deposit amount must be greater than zero\");\r\n\r\n        // Transfer tokens from sender to this contract\r\n        require(token.transferFrom(msg.sender, address(this), _amount), \"Failed to transfer tokens\");\r\n\r\n        // Update sender's balance\r\n        balances[msg.sender] += _amount;\r\n\r\n        // Emit deposit event\r\n        emit Deposit(msg.sender, _amount);\r\n    }\r\n\r\n    function withdraw(address _recipient, uint256 _amount) external {\r\n        require(_amount > 0, \"Withdrawal amount must be greater than zero\");\r\n        require(balances[msg.sender] >= _amount, \"Insufficient balance\");\r\n\r\n        // Transfer tokens from this contract to recipient\r\n        require(token.transfer(_recipient, _amount), \"Failed to transfer tokens\");\r\n\r\n        // Update sender's balance\r\n        balances[msg.sender] -= _amount;\r\n\r\n        // Emit withdrawal event\r\n        emit Withdrawal(_recipient, _amount);\r\n    }\r\n\r\n    function balanceOf(address _address) external view returns (uint256) {\r\n        return balances[_address];\r\n    }\r\n}\r\n",
  "sourcePath": "C:\\Users\\hp\\OneDrive\\Desktop\\Counter\\contracts\\polygon.sol",
  "compiler": {
    "name": "solc",
    "version": "0.8.21+commit.d9974bed.Emscripten.clang"
  },
  "schemaVersion": "3.4.16",
  "updatedAt": "2024-02-29T01:19:35.178Z",
  "devdoc": {
    "kind": "dev",
    "methods": {},
    "version": 1
  },
  "userdoc": {
    "kind": "user",
    "methods": {},
    "version": 1
  }
}