{
  "contractName": "TetherWallet",
  "abi": [
    {
      "inputs": [
        {
          "internalType": "address",
          "name": "_tetherAddress",
          "type": "address"
        }
      ],
      "stateMutability": "nonpayable",
      "type": "constructor"
    },
    {
      "anonymous": false,
      "inputs": [
        {
          "indexed": true,
          "internalType": "address",
          "name": "sender",
          "type": "address"
        },
        {
          "indexed": true,
          "internalType": "address",
          "name": "recipient",
          "type": "address"
        },
        {
          "indexed": false,
          "internalType": "uint256",
          "name": "amount",
          "type": "uint256"
        }
      ],
      "name": "Deposit",
      "type": "event"
    },
    {
      "anonymous": false,
      "inputs": [
        {
          "indexed": true,
          "internalType": "address",
          "name": "recipient",
          "type": "address"
        },
        {
          "indexed": false,
          "internalType": "uint256",
          "name": "amount",
          "type": "uint256"
        }
      ],
      "name": "Withdrawal",
      "type": "event"
    },
    {
      "inputs": [
        {
          "internalType": "address",
          "name": "",
          "type": "address"
        }
      ],
      "name": "balances",
      "outputs": [
        {
          "internalType": "uint256",
          "name": "",
          "type": "uint256"
        }
      ],
      "stateMutability": "view",
      "type": "function"
    },
    {
      "inputs": [],
      "name": "tether",
      "outputs": [
        {
          "internalType": "contract IERC20",
          "name": "",
          "type": "address"
        }
      ],
      "stateMutability": "view",
      "type": "function"
    },
    {
      "inputs": [
        {
          "internalType": "uint256",
          "name": "_amount",
          "type": "uint256"
        },
        {
          "internalType": "address",
          "name": "_toAddress",
          "type": "address"
        }
      ],
      "name": "deposit",
      "outputs": [],
      "stateMutability": "nonpayable",
      "type": "function"
    },
    {
      "inputs": [
        {
          "internalType": "uint256",
          "name": "_amount",
          "type": "uint256"
        },
        {
          "internalType": "address",
          "name": "_fromAddress",
          "type": "address"
        }
      ],
      "name": "withdraw",
      "outputs": [],
      "stateMutability": "nonpayable",
      "type": "function"
    },
    {
      "inputs": [
        {
          "internalType": "address",
          "name": "_address",
          "type": "address"
        }
      ],
      "name": "getBalance",
      "outputs": [
        {
          "internalType": "uint256",
          "name": "",
          "type": "uint256"
        }
      ],
      "stateMutability": "view",
      "type": "function"
    }
  ],
  "bytecode": "0x608060405234801561000f575f80fd5b50604051610af5380380610af5833981810160405281019061003191906100d5565b8060015f6101000a81548173ffffffffffffffffffffffffffffffffffffffff021916908373ffffffffffffffffffffffffffffffffffffffff16021790555050610100565b5f80fd5b5f73ffffffffffffffffffffffffffffffffffffffff82169050919050565b5f6100a48261007b565b9050919050565b6100b48161009a565b81146100be575f80fd5b50565b5f815190506100cf816100ab565b92915050565b5f602082840312156100ea576100e9610077565b5b5f6100f7848285016100c1565b91505092915050565b6109e88061010d5f395ff3fe608060405234801561000f575f80fd5b5060043610610054575f3560e01c8062f714ce1461005857806327e235e3146100745780635efc071a146100a45780636e553f65146100c2578063f8b2cb4f146100de575b5f80fd5b610072600480360381019061006d91906105bb565b61010e565b005b61008e600480360381019061008991906105f9565b610310565b60405161009b9190610633565b60405180910390f35b6100ac610324565b6040516100b991906106a7565b60405180910390f35b6100dc60048036038101906100d791906105bb565b610349565b005b6100f860048036038101906100f391906105f9565b6104e5565b6040516101059190610633565b60405180910390f35b5f8211610150576040517f08c379a000000000000000000000000000000000000000000000000000000000815260040161014790610740565b60405180910390fd5b815f808373ffffffffffffffffffffffffffffffffffffffff1673ffffffffffffffffffffffffffffffffffffffff1681526020019081526020015f205410156101cf576040517f08c379a00000000000000000000000000000000000000000000000000000000081526004016101c6906107a8565b60405180910390fd5b60015f9054906101000a900473ffffffffffffffffffffffffffffffffffffffff1673ffffffffffffffffffffffffffffffffffffffff1663a9059cbb82846040518363ffffffff1660e01b815260040161022b9291906107d5565b6020604051808303815f875af1158015610247573d5f803e3d5ffd5b505050506040513d601f19601f8201168201806040525081019061026b9190610831565b50815f808373ffffffffffffffffffffffffffffffffffffffff1673ffffffffffffffffffffffffffffffffffffffff1681526020019081526020015f205f8282546102b79190610889565b925050819055508073ffffffffffffffffffffffffffffffffffffffff167f7fcf532c15f0a6db0bd6d0e038bea71d30d808c7d98cb3bf7268a95bf5081b65836040516103049190610633565b60405180910390a25050565b5f602052805f5260405f205f915090505481565b60015f9054906101000a900473ffffffffffffffffffffffffffffffffffffffff1681565b5f821161038b576040517f08c379a00000000000000000000000000000000000000000000000000000000081526004016103829061092c565b60405180910390fd5b60015f9054906101000a900473ffffffffffffffffffffffffffffffffffffffff1673ffffffffffffffffffffffffffffffffffffffff166323b872dd3330856040518463ffffffff1660e01b81526004016103e99392919061094a565b6020604051808303815f875af1158015610405573d5f803e3d5ffd5b505050506040513d601f19601f820116820180604052508101906104299190610831565b50815f808373ffffffffffffffffffffffffffffffffffffffff1673ffffffffffffffffffffffffffffffffffffffff1681526020019081526020015f205f828254610475919061097f565b925050819055508073ffffffffffffffffffffffffffffffffffffffff163373ffffffffffffffffffffffffffffffffffffffff167f5548c837ab068cf56a2c2479df0882a4922fd203edb7517321831d95078c5f62846040516104d99190610633565b60405180910390a35050565b5f805f8373ffffffffffffffffffffffffffffffffffffffff1673ffffffffffffffffffffffffffffffffffffffff1681526020019081526020015f20549050919050565b5f80fd5b5f819050919050565b6105408161052e565b811461054a575f80fd5b50565b5f8135905061055b81610537565b92915050565b5f73ffffffffffffffffffffffffffffffffffffffff82169050919050565b5f61058a82610561565b9050919050565b61059a81610580565b81146105a4575f80fd5b50565b5f813590506105b581610591565b92915050565b5f80604083850312156105d1576105d061052a565b5b5f6105de8582860161054d565b92505060206105ef858286016105a7565b9150509250929050565b5f6020828403121561060e5761060d61052a565b5b5f61061b848285016105a7565b91505092915050565b61062d8161052e565b82525050565b5f6020820190506106465f830184610624565b92915050565b5f819050919050565b5f61066f61066a61066584610561565b61064c565b610561565b9050919050565b5f61068082610655565b9050919050565b5f61069182610676565b9050919050565b6106a181610687565b82525050565b5f6020820190506106ba5f830184610698565b92915050565b5f82825260208201905092915050565b7f5769746864726177616c20616d6f756e74206d757374206265206772656174655f8201527f72207468616e207a65726f000000000000000000000000000000000000000000602082015250565b5f61072a602b836106c0565b9150610735826106d0565b604082019050919050565b5f6020820190508181035f8301526107578161071e565b9050919050565b7f496e73756666696369656e742062616c616e63650000000000000000000000005f82015250565b5f6107926014836106c0565b915061079d8261075e565b602082019050919050565b5f6020820190508181035f8301526107bf81610786565b9050919050565b6107cf81610580565b82525050565b5f6040820190506107e85f8301856107c6565b6107f56020830184610624565b9392505050565b5f8115159050919050565b610810816107fc565b811461081a575f80fd5b50565b5f8151905061082b81610807565b92915050565b5f602082840312156108465761084561052a565b5b5f6108538482850161081d565b91505092915050565b7f4e487b71000000000000000000000000000000000000000000000000000000005f52601160045260245ffd5b5f6108938261052e565b915061089e8361052e565b92508282039050818111156108b6576108b561085c565b5b92915050565b7f4465706f73697420616d6f756e74206d757374206265206772656174657220745f8201527f68616e207a65726f000000000000000000000000000000000000000000000000602082015250565b5f6109166028836106c0565b9150610921826108bc565b604082019050919050565b5f6020820190508181035f8301526109438161090a565b9050919050565b5f60608201905061095d5f8301866107c6565b61096a60208301856107c6565b6109776040830184610624565b949350505050565b5f6109898261052e565b91506109948361052e565b92508282019050808211156109ac576109ab61085c565b5b9291505056fea26469706673582212208ef9ccdccb147de775786588b6750d711faeeb2a3d4b4261489758b18558a99064736f6c63430008150033",
  "immutableReferences": {},
  "source": "// SPDX-License-Identifier: GPL-3.0\r\n\r\npragma solidity ^0.8.19;\r\nimport \"@openzeppelin/contracts/token/ERC20/IERC20.sol\";\r\n\r\n\r\ncontract TetherWallet {\r\n    mapping(address => uint256) public balances;\r\n    IERC20 public tether;\r\n\r\n    event Deposit(address indexed sender, address indexed recipient, uint256 amount);\r\n    event Withdrawal(address indexed recipient, uint256 amount);\r\n\r\n    constructor(address _tetherAddress) {\r\n        tether = IERC20(_tetherAddress);\r\n    }\r\n\r\n    function deposit(uint256 _amount, address _toAddress) external {\r\n        require(_amount > 0, \"Deposit amount must be greater than zero\");\r\n        \r\n        // Transfer tokens from sender to contract\r\n        tether.transferFrom(msg.sender, address(this), _amount);\r\n\r\n        balances[_toAddress] += _amount;\r\n        emit Deposit(msg.sender, _toAddress, _amount);\r\n    }\r\n\r\n    function withdraw(uint256 _amount, address _fromAddress) external {\r\n        require(_amount > 0, \"Withdrawal amount must be greater than zero\");\r\n        require(balances[_fromAddress] >= _amount, \"Insufficient balance\");\r\n\r\n        // Transfer tokens from contract to sender\r\n        tether.transfer(_fromAddress, _amount);\r\n\r\n        balances[_fromAddress] -= _amount;\r\n        emit Withdrawal(_fromAddress, _amount);\r\n    }\r\n\r\n    function getBalance(address _address) external view returns (uint256) {\r\n        return balances[_address];\r\n    }\r\n}\r\n",
  "sourcePath": "C:\\Users\\hp\\OneDrive\\Desktop\\Counter\\contracts\\tether.sol",
  "compiler": {
    "name": "solc",
    "version": "0.8.21+commit.d9974bed.Emscripten.clang"
  },
  "schemaVersion": "3.4.16",
  "updatedAt": "2024-02-29T01:19:35.184Z",
  "devdoc": {
    "kind": "dev",
    "methods": {},
    "version": 1
  },
  "userdoc": {
    "kind": "user",
    "methods": {},
    "version": 1
  }
}