{
  "contractName": "TRC20",
  "abi": [
    {
      "inputs": [
        {
          "internalType": "uint256",
          "name": "initialSupply",
          "type": "uint256"
        }
      ],
      "stateMutability": "nonpayable",
      "type": "constructor"
    },
    {
      "anonymous": false,
      "inputs": [
        {
          "indexed": true,
          "internalType": "address",
          "name": "sender",
          "type": "address"
        },
        {
          "indexed": false,
          "internalType": "uint256",
          "name": "amount",
          "type": "uint256"
        }
      ],
      "name": "Deposit",
      "type": "event"
    },
    {
      "anonymous": false,
      "inputs": [
        {
          "indexed": true,
          "internalType": "address",
          "name": "recipient",
          "type": "address"
        },
        {
          "indexed": false,
          "internalType": "uint256",
          "name": "amount",
          "type": "uint256"
        }
      ],
      "name": "Withdrawal",
      "type": "event"
    },
    {
      "inputs": [],
      "name": "totalSupply",
      "outputs": [
        {
          "internalType": "uint256",
          "name": "",
          "type": "uint256"
        }
      ],
      "stateMutability": "view",
      "type": "function"
    },
    {
      "inputs": [
        {
          "internalType": "address",
          "name": "account",
          "type": "address"
        }
      ],
      "name": "balanceOf",
      "outputs": [
        {
          "internalType": "uint256",
          "name": "",
          "type": "uint256"
        }
      ],
      "stateMutability": "view",
      "type": "function"
    },
    {
      "inputs": [],
      "name": "deposit",
      "outputs": [],
      "stateMutability": "payable",
      "type": "function"
    },
    {
      "inputs": [
        {
          "internalType": "uint256",
          "name": "amount",
          "type": "uint256"
        }
      ],
      "name": "withdraw",
      "outputs": [],
      "stateMutability": "nonpayable",
      "type": "function"
    }
  ],
  "bytecode": "0x608060405234801561000f575f80fd5b5060405161083b38038061083b833981810160405281019061003191906100b6565b80600181905550805f803373ffffffffffffffffffffffffffffffffffffffff1673ffffffffffffffffffffffffffffffffffffffff1681526020019081526020015f2081905550506100e1565b5f80fd5b5f819050919050565b61009581610083565b811461009f575f80fd5b50565b5f815190506100b08161008c565b92915050565b5f602082840312156100cb576100ca61007f565b5b5f6100d8848285016100a2565b91505092915050565b61074d806100ee5f395ff3fe60806040526004361061003e575f3560e01c806318160ddd146100425780632e1a7d4d1461006c57806370a0823114610094578063d0e30db0146100d0575b5f80fd5b34801561004d575f80fd5b506100566100da565b60405161006391906103f9565b60405180910390f35b348015610077575f80fd5b50610092600480360381019061008d9190610440565b6100e0565b005b34801561009f575f80fd5b506100ba60048036038101906100b591906104c5565b6102a0565b6040516100c791906103f9565b60405180910390f35b6100d86102e5565b005b60015481565b5f8111610122576040517f08c379a000000000000000000000000000000000000000000000000000000000815260040161011990610570565b60405180910390fd5b805f803373ffffffffffffffffffffffffffffffffffffffff1673ffffffffffffffffffffffffffffffffffffffff1681526020019081526020015f205410156101a1576040517f08c379a0000000000000000000000000000000000000000000000000000000008152600401610198906105d8565b60405180910390fd5b805f803373ffffffffffffffffffffffffffffffffffffffff1673ffffffffffffffffffffffffffffffffffffffff1681526020019081526020015f205f8282546101ec9190610623565b925050819055508060015f8282546102049190610623565b925050819055503373ffffffffffffffffffffffffffffffffffffffff166108fc8290811502906040515f60405180830381858888f1935050505015801561024e573d5f803e3d5ffd5b503373ffffffffffffffffffffffffffffffffffffffff167f7fcf532c15f0a6db0bd6d0e038bea71d30d808c7d98cb3bf7268a95bf5081b658260405161029591906103f9565b60405180910390a250565b5f805f8373ffffffffffffffffffffffffffffffffffffffff1673ffffffffffffffffffffffffffffffffffffffff1681526020019081526020015f20549050919050565b5f3411610327576040517f08c379a000000000000000000000000000000000000000000000000000000000815260040161031e906106c6565b60405180910390fd5b345f803373ffffffffffffffffffffffffffffffffffffffff1673ffffffffffffffffffffffffffffffffffffffff1681526020019081526020015f205f82825461037291906106e4565b925050819055503460015f82825461038a91906106e4565b925050819055503373ffffffffffffffffffffffffffffffffffffffff167fe1fffcc4923d04b559f4d29a8bfc6cda04eb5b0d3c460751c2402c5c5cc9109c346040516103d791906103f9565b60405180910390a2565b5f819050919050565b6103f3816103e1565b82525050565b5f60208201905061040c5f8301846103ea565b92915050565b5f80fd5b61041f816103e1565b8114610429575f80fd5b50565b5f8135905061043a81610416565b92915050565b5f6020828403121561045557610454610412565b5b5f6104628482850161042c565b91505092915050565b5f73ffffffffffffffffffffffffffffffffffffffff82169050919050565b5f6104948261046b565b9050919050565b6104a48161048a565b81146104ae575f80fd5b50565b5f813590506104bf8161049b565b92915050565b5f602082840312156104da576104d9610412565b5b5f6104e7848285016104b1565b91505092915050565b5f82825260208201905092915050565b7f5769746864726177616c20616d6f756e74206d757374206265206772656174655f8201527f72207468616e207a65726f000000000000000000000000000000000000000000602082015250565b5f61055a602b836104f0565b915061056582610500565b604082019050919050565b5f6020820190508181035f8301526105878161054e565b9050919050565b7f496e73756666696369656e742062616c616e63650000000000000000000000005f82015250565b5f6105c26014836104f0565b91506105cd8261058e565b602082019050919050565b5f6020820190508181035f8301526105ef816105b6565b9050919050565b7f4e487b71000000000000000000000000000000000000000000000000000000005f52601160045260245ffd5b5f61062d826103e1565b9150610638836103e1565b92508282039050818111156106505761064f6105f6565b5b92915050565b7f4465706f73697420616d6f756e74206d757374206265206772656174657220745f8201527f68616e207a65726f000000000000000000000000000000000000000000000000602082015250565b5f6106b06028836104f0565b91506106bb82610656565b604082019050919050565b5f6020820190508181035f8301526106dd816106a4565b9050919050565b5f6106ee826103e1565b91506106f9836103e1565b9250828201905080821115610711576107106105f6565b5b9291505056fea2646970667358221220c358e11a313cc531871d9400fb6d15cc94f999326c823e531a971186405be79464736f6c63430008150033",
  "immutableReferences": {},
  "source": "// SPDX-License-Identifier: GPL-3.0\r\n\r\npragma solidity ^0.8.19;\r\n\r\ncontract TRC20 {\r\n    mapping(address => uint256) balances;\r\n    uint256 public totalSupply;\r\n\r\n    event Deposit(address indexed sender, uint256 amount);\r\n    event Withdrawal(address indexed recipient, uint256 amount);\r\n\r\n    constructor(uint256 initialSupply) {\r\n        totalSupply = initialSupply;\r\n        balances[msg.sender] = initialSupply;\r\n    }\r\n\r\n    function balanceOf(address account) external view returns (uint256) {\r\n        return balances[account];\r\n    }\r\n\r\n    function deposit() external payable {\r\n        require(msg.value > 0, \"Deposit amount must be greater than zero\");\r\n\r\n        balances[msg.sender] += msg.value;\r\n        totalSupply += msg.value;\r\n        emit Deposit(msg.sender, msg.value);\r\n    }\r\n\r\n    function withdraw(uint256 amount) external {\r\n        require(amount > 0, \"Withdrawal amount must be greater than zero\");\r\n        require(balances[msg.sender] >= amount, \"Insufficient balance\");\r\n\r\n        balances[msg.sender] -= amount;\r\n        totalSupply -= amount;\r\n        payable(msg.sender).transfer(amount);\r\n        emit Withdrawal(msg.sender, amount);\r\n    }\r\n}\r\n",
  "sourcePath": "C:\\Users\\hp\\OneDrive\\Desktop\\Counter\\contracts\\tron.sol",
  "compiler": {
    "name": "solc",
    "version": "0.8.21+commit.d9974bed.Emscripten.clang"
  },
  "schemaVersion": "3.4.16",
  "updatedAt": "2024-02-29T01:19:35.191Z",
  "devdoc": {
    "kind": "dev",
    "methods": {},
    "version": 1
  },
  "userdoc": {
    "kind": "user",
    "methods": {},
    "version": 1
  }
}